{
    "contractName": "VotingApp",
    "abi": [
        {
            "constant": true,
            "inputs": [],
            "name": "hasInitialized",
            "outputs": [
                {
                    "name": "",
                    "type": "bool"
                }
            ],
            "payable": false,
            "stateMutability": "view",
            "type": "function"
        },
        {
            "constant": true,
            "inputs": [],
            "name": "KERNEL_APP_ID",
            "outputs": [
                {
                    "name": "",
                    "type": "bytes32"
                }
            ],
            "payable": false,
            "stateMutability": "view",
            "type": "function"
        },
        {
            "constant": true,
            "inputs": [],
            "name": "APP_ADDR_NAMESPACE",
            "outputs": [
                {
                    "name": "",
                    "type": "bytes32"
                }
            ],
            "payable": false,
            "stateMutability": "view",
            "type": "function"
        },
        {
            "constant": true,
            "inputs": [
                {
                    "name": "",
                    "type": "uint256"
                }
            ],
            "name": "voterIdToResult",
            "outputs": [
                {
                    "name": "",
                    "type": "bool"
                }
            ],
            "payable": false,
            "stateMutability": "view",
            "type": "function"
        },
        {
            "constant": true,
            "inputs": [],
            "name": "getRecoveryVault",
            "outputs": [
                {
                    "name": "",
                    "type": "address"
                }
            ],
            "payable": false,
            "stateMutability": "view",
            "type": "function"
        },
        {
            "constant": true,
            "inputs": [],
            "name": "EVMSCRIPT_REGISTRY_APP_ID",
            "outputs": [
                {
                    "name": "",
                    "type": "bytes32"
                }
            ],
            "payable": false,
            "stateMutability": "view",
            "type": "function"
        },
        {
            "constant": true,
            "inputs": [],
            "name": "CORE_NAMESPACE",
            "outputs": [
                {
                    "name": "",
                    "type": "bytes32"
                }
            ],
            "payable": false,
            "stateMutability": "view",
            "type": "function"
        },
        {
            "constant": true,
            "inputs": [],
            "name": "ADMIN_ROLE",
            "outputs": [
                {
                    "name": "",
                    "type": "bytes32"
                }
            ],
            "payable": false,
            "stateMutability": "view",
            "type": "function"
        },
        {
            "constant": true,
            "inputs": [
                {
                    "name": "token",
                    "type": "address"
                }
            ],
            "name": "allowRecoverability",
            "outputs": [
                {
                    "name": "",
                    "type": "bool"
                }
            ],
            "payable": false,
            "stateMutability": "view",
            "type": "function"
        },
        {
            "constant": true,
            "inputs": [],
            "name": "appId",
            "outputs": [
                {
                    "name": "",
                    "type": "bytes32"
                }
            ],
            "payable": false,
            "stateMutability": "view",
            "type": "function"
        },
        {
            "constant": true,
            "inputs": [],
            "name": "ETH",
            "outputs": [
                {
                    "name": "",
                    "type": "address"
                }
            ],
            "payable": false,
            "stateMutability": "view",
            "type": "function"
        },
        {
            "constant": true,
            "inputs": [],
            "name": "getInitializationBlock",
            "outputs": [
                {
                    "name": "",
                    "type": "uint256"
                }
            ],
            "payable": false,
            "stateMutability": "view",
            "type": "function"
        },
        {
            "constant": false,
            "inputs": [
                {
                    "name": "_token",
                    "type": "address"
                }
            ],
            "name": "transferToVault",
            "outputs": [],
            "payable": false,
            "stateMutability": "nonpayable",
            "type": "function"
        },
        {
            "constant": true,
            "inputs": [
                {
                    "name": "_sender",
                    "type": "address"
                },
                {
                    "name": "_role",
                    "type": "bytes32"
                },
                {
                    "name": "_params",
                    "type": "uint256[]"
                }
            ],
            "name": "canPerform",
            "outputs": [
                {
                    "name": "",
                    "type": "bool"
                }
            ],
            "payable": false,
            "stateMutability": "view",
            "type": "function"
        },
        {
            "constant": true,
            "inputs": [],
            "name": "VOTER_ROLE",
            "outputs": [
                {
                    "name": "",
                    "type": "bytes32"
                }
            ],
            "payable": false,
            "stateMutability": "view",
            "type": "function"
        },
        {
            "constant": true,
            "inputs": [],
            "name": "ACL_APP_ID",
            "outputs": [
                {
                    "name": "",
                    "type": "bytes32"
                }
            ],
            "payable": false,
            "stateMutability": "view",
            "type": "function"
        },
        {
            "constant": true,
            "inputs": [],
            "name": "kernel",
            "outputs": [
                {
                    "name": "",
                    "type": "address"
                }
            ],
            "payable": false,
            "stateMutability": "view",
            "type": "function"
        },
        {
            "constant": true,
            "inputs": [],
            "name": "APP_BASES_NAMESPACE",
            "outputs": [
                {
                    "name": "",
                    "type": "bytes32"
                }
            ],
            "payable": false,
            "stateMutability": "view",
            "type": "function"
        },
        {
            "constant": true,
            "inputs": [],
            "name": "isPetrified",
            "outputs": [
                {
                    "name": "",
                    "type": "bool"
                }
            ],
            "payable": false,
            "stateMutability": "view",
            "type": "function"
        },
        {
            "constant": true,
            "inputs": [
                {
                    "name": "_script",
                    "type": "bytes"
                }
            ],
            "name": "getExecutor",
            "outputs": [
                {
                    "name": "",
                    "type": "address"
                }
            ],
            "payable": false,
            "stateMutability": "view",
            "type": "function"
        },
        {
            "constant": true,
            "inputs": [
                {
                    "name": "",
                    "type": "address"
                }
            ],
            "name": "addressToVoterId",
            "outputs": [
                {
                    "name": "",
                    "type": "uint256"
                }
            ],
            "payable": false,
            "stateMutability": "view",
            "type": "function"
        },
        {
            "anonymous": false,
            "inputs": [
                {
                    "indexed": true,
                    "name": "executor",
                    "type": "address"
                },
                {
                    "indexed": false,
                    "name": "script",
                    "type": "bytes"
                },
                {
                    "indexed": false,
                    "name": "input",
                    "type": "bytes"
                },
                {
                    "indexed": false,
                    "name": "returnData",
                    "type": "bytes"
                }
            ],
            "name": "ScriptResult",
            "type": "event"
        },
        {
            "constant": false,
            "inputs": [
                {
                    "name": "_startTime",
                    "type": "uint256"
                },
                {
                    "name": "_endTime",
                    "type": "uint256"
                },
                {
                    "name": "_location",
                    "type": "string"
                }
            ],
            "name": "intialize",
            "outputs": [],
            "payable": false,
            "stateMutability": "nonpayable",
            "type": "function"
        },
        {
            "constant": false,
            "inputs": [
                {
                    "name": "_voter",
                    "type": "address"
                },
                {
                    "name": "_ACLAddress",
                    "type": "address"
                }
            ],
            "name": "addVoter",
            "outputs": [],
            "payable": false,
            "stateMutability": "nonpayable",
            "type": "function"
        },
        {
            "constant": false,
            "inputs": [
                {
                    "name": "vote",
                    "type": "bool"
                }
            ],
            "name": "vote",
            "outputs": [],
            "payable": false,
            "stateMutability": "nonpayable",
            "type": "function"
        },
        {
            "constant": false,
            "inputs": [],
            "name": "getResult",
            "outputs": [
                {
                    "name": "",
                    "type": "bool"
                }
            ],
            "payable": false,
            "stateMutability": "nonpayable",
            "type": "function"
        }
    ],
    "bytecode": "0x60806040526200001d62000023640100000000026401000000009004565b6200015b565b60006200003e62000087640100000000026401000000009004565b1415156200004b57600080fd5b620000857fffffffffffffffffffffffffffffffffffffffffffffffffffffffffffffffff620000d4640100000000026401000000009004565b565b6000620000cf7febb05b386a8d34882b8711d156f463690983dc47815980fb82aeeff1aa43579e600102600019166200014964010000000002620016f0176401000000009004565b905090565b6000620000ef62000087640100000000026401000000009004565b141515620000fc57600080fd5b62000146817febb05b386a8d34882b8711d156f463690983dc47815980fb82aeeff1aa43579e60010260001916620001546401000000000262001873179091906401000000009004565b50565b600081549050919050565b8082555050565b61194b806200016b6000396000f300608060405260043610610149576000357c0100000000000000000000000000000000000000000000000000000000900463ffffffff1680630803fac01461014e5780630e84cc0f1461017d5780631113ed0d146101fa578063178e60791461022d5780632727a9d01461026057806332f0a3b5146102a55780634b9f5c98146102fc57806360b1e0571461032b578063756f60491461035e57806375b238fc146103915780637e7db6e1146103c457806380afdea81461041f5780638322fff2146104525780638b3dd749146104a95780639d4941d8146104d4578063a1658fad14610517578063a94015c8146105c3578063cbcc65eb146105f6578063d4aae0c414610629578063db8a61d414610680578063de292789146106b3578063de4796ed146106e2578063f92a79ff14610711578063fa106d40146107ba578063fe62ade01461081d575b600080fd5b34801561015a57600080fd5b50610163610874565b604051808215151515815260200191505060405180910390f35b34801561018957600080fd5b506101f86004803603810190808035906020019092919080359060200190929190803590602001908201803590602001908080601f016020809104026020016040519081016040528093929190818152602001838380828437820191505050505050919291929050505061089f565b005b34801561020657600080fd5b5061020f610966565b60405180826000191660001916815260200191505060405180910390f35b34801561023957600080fd5b5061024261098d565b60405180826000191660001916815260200191505060405180910390f35b34801561026c57600080fd5b5061028b600480360381019080803590602001909291905050506109b4565b604051808215151515815260200191505060405180910390f35b3480156102b157600080fd5b506102ba6109d4565b604051808273ffffffffffffffffffffffffffffffffffffffff1673ffffffffffffffffffffffffffffffffffffffff16815260200191505060405180910390f35b34801561030857600080fd5b50610329600480360381019080803515159060200190929190505050610ac3565b005b34801561033757600080fd5b50610340610cfc565b60405180826000191660001916815260200191505060405180910390f35b34801561036a57600080fd5b50610373610d23565b60405180826000191660001916815260200191505060405180910390f35b34801561039d57600080fd5b506103a6610d4a565b60405180826000191660001916815260200191505060405180910390f35b3480156103d057600080fd5b50610405600480360381019080803573ffffffffffffffffffffffffffffffffffffffff169060200190929190505050610d83565b604051808215151515815260200191505060405180910390f35b34801561042b57600080fd5b50610434610d8e565b60405180826000191660001916815260200191505060405180910390f35b34801561045e57600080fd5b50610467610dc5565b604051808273ffffffffffffffffffffffffffffffffffffffff1673ffffffffffffffffffffffffffffffffffffffff16815260200191505060405180910390f35b3480156104b557600080fd5b506104be610dca565b6040518082815260200191505060405180910390f35b3480156104e057600080fd5b50610515600480360381019080803573ffffffffffffffffffffffffffffffffffffffff169060200190929190505050610e01565b005b34801561052357600080fd5b506105a9600480360381019080803573ffffffffffffffffffffffffffffffffffffffff16906020019092919080356000191690602001909291908035906020019082018035906020019080806020026020016040519081016040528093929190818152602001838360200280828437820191505050505050919291929050505061108b565b604051808215151515815260200191505060405180910390f35b3480156105cf57600080fd5b506105d861129d565b60405180826000191660001916815260200191505060405180910390f35b34801561060257600080fd5b5061060b6112d6565b60405180826000191660001916815260200191505060405180910390f35b34801561063557600080fd5b5061063e6112fd565b604051808273ffffffffffffffffffffffffffffffffffffffff1673ffffffffffffffffffffffffffffffffffffffff16815260200191505060405180910390f35b34801561068c57600080fd5b50610695611334565b60405180826000191660001916815260200191505060405180910390f35b3480156106bf57600080fd5b506106c861135b565b604051808215151515815260200191505060405180910390f35b3480156106ee57600080fd5b506106f7611369565b604051808215151515815260200191505060405180910390f35b34801561071d57600080fd5b50610778600480360381019080803590602001908201803590602001908080601f016020809104026020016040519081016040528093929190818152602001838380828437820191505050505050919291929050505061139a565b604051808273ffffffffffffffffffffffffffffffffffffffff1673ffffffffffffffffffffffffffffffffffffffff16815260200191505060405180910390f35b3480156107c657600080fd5b5061081b600480360381019080803573ffffffffffffffffffffffffffffffffffffffff169060200190929190803573ffffffffffffffffffffffffffffffffffffffff1690602001909291905050506114b9565b005b34801561082957600080fd5b5061085e600480360381019080803573ffffffffffffffffffffffffffffffffffffffff16906020019092919050505061166c565b6040518082815260200191505060405180910390f35b60008061087f610dca565b905060008114158015610899575080610896611684565b10155b91505090565b60006108a9610dca565b1415156108b557600080fd5b818310151561092c576040517f08c379a00000000000000000000000000000000000000000000000000000000081526004018080602001828103825260138152602001807f456e642074696d6520697320696e76616c69640000000000000000000000000081525060200191505060405180910390fd5b8260008190555081600181905550806004908051906020019061095092919061187a565b50600060078190555061096161168c565b505050565b7f3b4bf6bf3ad5000ecf0f989d5befde585c6860fea3e574a4fab4c49d1c177d9c60010281565b7fd6f028ca0e8edb4a8c9757ca4fdccab25fa1e0317da1188108f7d2dee14902fb60010281565b60066020528060005260406000206000915054906101000a900460ff1681565b60008073ffffffffffffffffffffffffffffffffffffffff166109f56112fd565b73ffffffffffffffffffffffffffffffffffffffff1614151515610a1857600080fd5b610a206112fd565b73ffffffffffffffffffffffffffffffffffffffff166332f0a3b56040518163ffffffff167c0100000000000000000000000000000000000000000000000000000000028152600401602060405180830381600087803b158015610a8357600080fd5b505af1158015610a97573d6000803e3d6000fd5b505050506040513d6020811015610aad57600080fd5b8101908080519060200190929190505050905090565b60405180807f564f5445525f524f4c4500000000000000000000000000000000000000000000815250600a0190506040518091039020610b3433826000604051908082528060200260200182016040528015610b2e5781602001602082028038833980820191505090505b5061108b565b1515610b3f57600080fd5b60015442101515610bb8576040517f08c379a000000000000000000000000000000000000000000000000000000000815260040180806020018281038252600f8152602001807f566f74652068617320656e6465642e000000000000000000000000000000000081525060200191505060405180910390fd5b6000600560003373ffffffffffffffffffffffffffffffffffffffff1673ffffffffffffffffffffffffffffffffffffffff16815260200190815260200160002054141515610c0657600080fd5b600160075401600560003373ffffffffffffffffffffffffffffffffffffffff1673ffffffffffffffffffffffffffffffffffffffff168152602001908152602001600020819055508160066000600560003373ffffffffffffffffffffffffffffffffffffffff1673ffffffffffffffffffffffffffffffffffffffff16815260200190815260200160002054815260200190815260200160002060006101000a81548160ff021916908315150217905550600160076000828254019250508190555081610ce5576003600081548092919060010191905055610cf7565b60026000815480929190600101919050555b505050565b7fddbcfd564f642ab5627cf68b9b7d374fb4f8a36e941a75d89c87998cef03bd6160010281565b7fc681a85306374a5ab27f0bbc385296a54bcd314a1948b6cf61c4ea1bc44bb9f860010281565b60405180807f41444d494e5f524f4c4500000000000000000000000000000000000000000000815250600a019050604051809103902081565b600060019050919050565b6000610dc07fd625496217aa6a3453eecb9c3489dc5a53e6c67b444329ea2b2cbc9ff547639b600102600019166116e5565b905090565b600081565b6000610dfc7febb05b386a8d34882b8711d156f463690983dc47815980fb82aeeff1aa43579e600102600019166116f0565b905090565b600080610e0d83610d83565b1515610e1857600080fd5b610e206109d4565b9150610e2b826116fb565b1515610e3657600080fd5b600073ffffffffffffffffffffffffffffffffffffffff168373ffffffffffffffffffffffffffffffffffffffff161415610ece578173ffffffffffffffffffffffffffffffffffffffff166108fc3073ffffffffffffffffffffffffffffffffffffffff16319081150290604051600060405180830381858888f19350505050158015610ec8573d6000803e3d6000fd5b50611086565b8273ffffffffffffffffffffffffffffffffffffffff166370a08231306040518263ffffffff167c0100000000000000000000000000000000000000000000000000000000028152600401808273ffffffffffffffffffffffffffffffffffffffff1673ffffffffffffffffffffffffffffffffffffffff168152602001915050602060405180830381600087803b158015610f6957600080fd5b505af1158015610f7d573d6000803e3d6000fd5b505050506040513d6020811015610f9357600080fd5b810190808051906020019092919050505090508273ffffffffffffffffffffffffffffffffffffffff1663a9059cbb83836040518363ffffffff167c0100000000000000000000000000000000000000000000000000000000028152600401808373ffffffffffffffffffffffffffffffffffffffff1673ffffffffffffffffffffffffffffffffffffffff16815260200182815260200192505050602060405180830381600087803b15801561104957600080fd5b505af115801561105d573d6000803e3d6000fd5b505050506040513d602081101561107357600080fd5b8101908080519060200190929190505050505b505050565b6000806060600061109a610874565b15156110a95760009350611293565b6110b16112fd565b9250600073ffffffffffffffffffffffffffffffffffffffff168373ffffffffffffffffffffffffffffffffffffffff1614156110f15760009350611293565b60008551111561110957602085510290508491508082525b8273ffffffffffffffffffffffffffffffffffffffff1663fdef9106883089866040518563ffffffff167c0100000000000000000000000000000000000000000000000000000000028152600401808573ffffffffffffffffffffffffffffffffffffffff1673ffffffffffffffffffffffffffffffffffffffff1681526020018473ffffffffffffffffffffffffffffffffffffffff1673ffffffffffffffffffffffffffffffffffffffff168152602001836000191660001916815260200180602001828103825283818151815260200191508051906020019080838360005b838110156112065780820151818401526020810190506111eb565b50505050905090810190601f1680156112335780820380516001836020036101000a031916815260200191505b5095505050505050602060405180830381600087803b15801561125557600080fd5b505af1158015611269573d6000803e3d6000fd5b505050506040513d602081101561127f57600080fd5b810190808051906020019092919050505093505b5050509392505050565b60405180807f564f5445525f524f4c4500000000000000000000000000000000000000000000815250600a019050604051809103902081565b7fe3262375f45a6e2026b7e7b18c2b807434f2508fe1a2a3dfb493c7df8f4aad6a60010281565b600061132f7f4172f0f7d2289153072b0a6ca36959e0cbe2efc3afe50fc81636caa96338137b6001026000191661174d565b905090565b7ff1f3eb40f5bc1ad1344716ced8b8a0431d840b5783aea1fd01786bc26f35ac0f60010281565b600060035460025411905090565b60007fffffffffffffffffffffffffffffffffffffffffffffffffffffffffffffffff611394610dca565b14905090565b60006113a4611758565b73ffffffffffffffffffffffffffffffffffffffff166304bf2a7f836040518263ffffffff167c01000000000000000000000000000000000000000000000000000000000281526004018080602001828103825283818151815260200191508051906020019080838360005b8381101561142b578082015181840152602081019050611410565b50505050905090810190601f1680156114585780820380516001836020036101000a031916815260200191505b5092505050602060405180830381600087803b15801561147757600080fd5b505af115801561148b573d6000803e3d6000fd5b505050506040513d60208110156114a157600080fd5b81019080805190602001909291905050509050919050565b600060405180807f41444d494e5f524f4c4500000000000000000000000000000000000000000000815250600a019050604051809103902061152c338260006040519080825280602002602001820160405280156115265781602001602082028038833980820191505090505b5061108b565b151561153757600080fd5b8291508173ffffffffffffffffffffffffffffffffffffffff16630a8ed3db853060405180807f564f5445525f524f4c4500000000000000000000000000000000000000000000815250600a01905060405180910390206040518463ffffffff167c0100000000000000000000000000000000000000000000000000000000028152600401808473ffffffffffffffffffffffffffffffffffffffff1673ffffffffffffffffffffffffffffffffffffffff1681526020018373ffffffffffffffffffffffffffffffffffffffff1673ffffffffffffffffffffffffffffffffffffffff16815260200182600019166000191681526020019350505050600060405180830381600087803b15801561164e57600080fd5b505af1158015611662573d6000803e3d6000fd5b5050505050505050565b60056020528060005260406000206000915090505481565b600043905090565b6000611696610dca565b1415156116a257600080fd5b6116e36116ad611684565b7febb05b386a8d34882b8711d156f463690983dc47815980fb82aeeff1aa43579e6001026000191661187390919063ffffffff16565b565b600081549050919050565b600081549050919050565b600080600073ffffffffffffffffffffffffffffffffffffffff168373ffffffffffffffffffffffffffffffffffffffff16141561173c5760009150611747565b823b90506000811191505b50919050565b600081549050919050565b6000806117636112fd565b73ffffffffffffffffffffffffffffffffffffffff1663be00bbd87fd6f028ca0e8edb4a8c9757ca4fdccab25fa1e0317da1188108f7d2dee14902fb6001027fddbcfd564f642ab5627cf68b9b7d374fb4f8a36e941a75d89c87998cef03bd616001026040518363ffffffff167c0100000000000000000000000000000000000000000000000000000000028152600401808360001916600019168152602001826000191660001916815260200192505050602060405180830381600087803b15801561182f57600080fd5b505af1158015611843573d6000803e3d6000fd5b505050506040513d602081101561185957600080fd5b810190808051906020019092919050505090508091505090565b8082555050565b828054600181600116156101000203166002900490600052602060002090601f016020900481019282601f106118bb57805160ff19168380011785556118e9565b828001600101855582156118e9579182015b828111156118e85782518255916020019190600101906118cd565b5b5090506118f691906118fa565b5090565b61191c91905b80821115611918576000816000905550600101611900565b5090565b905600a165627a7a723058201b7bda809595d2409dcc09625d5df042cbac480dd64a6cda07244d315e43d0960029",
    "source": "pragma solidity ^0.4.24;\n\nimport \"@aragon/os/contracts/apps/AragonApp.sol\";\nimport \"@aragon/os/contracts/lib/math/SafeMath.sol\";\nimport \"@aragon/os/contracts/acl/ACL.sol\";\n\ncontract VotingApp is AragonApp {\n\n    uint startTime;\n    uint endTime;\n    uint votesFor;\n    uint votesAgainst;\n    string location;\n\n    bytes32 constant public ADMIN_ROLE = keccak256(\"ADMIN_ROLE\");\n    bytes32 constant public VOTER_ROLE = keccak256(\"VOTER_ROLE\");\n\n    mapping(address => uint) public addressToVoterId;\n    mapping(uint => bool) public voterIdToResult;\n    uint votingIndex; \n\n    function intialize(uint _startTime, uint _endTime, string _location) onlyInit public {\n        require(_startTime < _endTime, \"End time is invalid\");\n        startTime = _startTime;\n        endTime = _endTime;\n        location = _location;\n        votingIndex = 0;\n        initialized();\n    }\n\n    function addVoter(address _voter, address _ACLAddress) public auth(ADMIN_ROLE) {  \n        ACL acl = ACL(_ACLAddress);      \n        acl.grantPermission(_voter, address(this), VOTER_ROLE);\n    }\n\n    function vote(bool vote) public auth(VOTER_ROLE) {\n        require(now < endTime, \"Vote has ended.\");\n        require(addressToVoterId[msg.sender] == 0);\n        addressToVoterId[msg.sender] = votingIndex + 1;\n        voterIdToResult[addressToVoterId[msg.sender]] = vote;\n        votingIndex += 1;\n        vote ? votesFor++ : votesAgainst++;\n    }\n\n    function getResult() public returns(bool) {\n        return votesFor > votesAgainst;\n    }\n\n}",
    "sourcePath": "/home/ana/aragon-dao/aragon-demo/contracts/VotingApp.sol",
    "compiler": {
        "name": "solc",
        "version": "0.4.24+commit.e67f0147.Emscripten.clang"
    },
    "schemaVersion": "2.0.1",
    "updatedAt": "2019-06-15T15:07:38.879Z"
}